{
  "contractName": "Investitions",
  "abi": [
    {
      "constant": false,
      "inputs": [],
      "name": "refund",
      "outputs": [],
      "payable": false,
      "stateMutability": "nonpayable",
      "type": "function"
    },
    {
      "constant": false,
      "inputs": [],
      "name": "sendMoney",
      "outputs": [],
      "payable": true,
      "stateMutability": "payable",
      "type": "function"
    },
    {
      "constant": true,
      "inputs": [],
      "name": "getBalance",
      "outputs": [
        {
          "name": "",
          "type": "uint256"
        }
      ],
      "payable": false,
      "stateMutability": "view",
      "type": "function"
    }
  ],
  "bytecode": "0x608060405234801561001057600080fd5b506101f2806100206000396000f300608060405260043610610057576000357c0100000000000000000000000000000000000000000000000000000000900463ffffffff16806312065fe01461005c578063590e1ae314610087578063cbedbf5a1461009e575b600080fd5b34801561006857600080fd5b506100716100a8565b6040518082815260200191505060405180910390f35b34801561009357600080fd5b5061009c6100c7565b005b6100a6610178565b005b60003073ffffffffffffffffffffffffffffffffffffffff1631905090565b3373ffffffffffffffffffffffffffffffffffffffff166000803373ffffffffffffffffffffffffffffffffffffffff1673ffffffffffffffffffffffffffffffffffffffff1681526020019081526020016000205460405160006040518083038185875af1925050505060008060003373ffffffffffffffffffffffffffffffffffffffff1673ffffffffffffffffffffffffffffffffffffffff16815260200190815260200160002081905550565b346000803373ffffffffffffffffffffffffffffffffffffffff1673ffffffffffffffffffffffffffffffffffffffff168152602001908152602001600020600082825401925050819055505600a165627a7a723058200e9e66c6c9817c6906e094f9b2a861ae60ac1a17b05d2486f6ed252a03669cee0029",
  "source": "pragma solidity ^0.4.23;\r\n\r\ncontract Investitions {\r\n    mapping (address => uint256) investors;\r\n\r\n    function refund() public {\r\n        msg.sender.call.value(investors[msg.sender])();\r\n        investors[msg.sender] = 0;\r\n    }\r\n\r\n    function sendMoney() payable public {\r\n        investors[msg.sender] += msg.value;\r\n    }\r\n\r\n    function getBalance() public view returns(uint256) {\r\n        return address(this).balance;\r\n    }\r\n}",
  "sourcePath": "C:\\Users\\1\\Desktop\\Re-EntrancyAttack\\contracts\\Investitions.sol",
  "compiler": {
    "name": "solc",
    "version": "0.4.24+commit.e67f0147.Emscripten.clang"
  },
  "schemaVersion": "2.0.1",
  "updatedAt": "2018-07-22T00:12:05.746Z"
}